:1000000010C82AC829C828C827C826C832C824C882
:1000100023C822C821C820C81FC847C81DC81CC87B
:100020001BC83D003E003E003E003E003E003E003C
:100030003E003E003E003F003F003F003F003F00CB
:100040003F003F003F003F004000400040004000B4
:10005000400040004000400041004100410041009C
:100060004100410041004100420042004200420084
:10007000420042004200420043004300430043006C
:100080004300430043004400440044004400440053
:10009000440044004500450045004500450045003A
:1000A0004500460046004600460046004600460021
:1000B0004700470047004700470047004800480006
:1000C00048004800480048004900490049004900EC
:1000D000490049004A004A004A004A004A004A00D2
:1000E0004B004B004B004B004B004C004C004C00B5
:1000F0004C004C004C004D004D004D004D004D009B
:100100004E004E004E004E004E004F004F004F007C
:100110004F004F0050005000500050005000510060
:100120005100510051005100520052005200520043
:100130005300530053005300530054005400540024
:100140005400550055005500550056005600560005
:1001500056005700570057005700570058005800E6
:10016000580058005900590059005A005A005A00C6
:100170005A005B005B005B005B005C005C005C00A5
:100180005C005D005D005D005E005E005E005E0084
:100190005F005F005F006000600060006000610061
:1001A000610061006200620062006300630063003E
:1001B000630064006400640065006500650066001B
:1001C00066006600670067006700680068006800F6
:1001D0006900690069006A006A006A006B006B00D0
:1001E0006B006C006C006D006D006D006E006E00A9
:1001F0006E006F006F007000700070007100710081
:100200007100720072007300730073007400740058
:10021000750075007500760076007700770077002E
:1002200078007800790079007A007A007A007B0003
:100230007B007C007C007D007D007E007E007F00D6
:100240007F007F00800080008100810082008200AA
:10025000830083008400840085008500860086007A
:100260008700870088008800890089008A008A004A
:100270008B008B008C008C008D008D008E008F0019
:100280008F009000900091009100920092009300E6
:1002900094009400950095009600960097009800B1
:1002A0009800990099009A009B009B009C009D007B
:1002B0009D009E009E009F00A000A000A100A20043
:1002C000A200A300A400A400A500A600A600A70009
:1002D000A800A800A900AA00AA00AB00AC00AC00CE
:1002E000AD00AE00AF00AF00B000B100B100B20091
:1002F000B300B400B400B500B600B700B700B80052
:10030000B900BA00BB00BB00BC00BD00BE00BF000E
:10031000BF00C000C100C200C300C300C400C500CC
:10032000C600C700C800C900C900CA00CB00CC0085
:10033000CD00CE00CF00D000D000D100D200D3003D
:10034000D400D500D600D700D800D900DA00DB00F1
:10035000DC00DD00DE00DF00E000E100E200E300A1
:10036000E400E500E600E700E800E900EA00EB0051
:10037000EC00ED00EE00EF00F000F100F200F30001
:10038000F400F500F700F800F900FA00FB00FC00AB
:10039000FD00FE000001010102010301040106014C
:1003A0000701080109010A010C010D010E010F01ED
:1003B000100112011301140116011701180119018E
:1003C0001B011C011D011F0120012101230124012A
:1003D00025012701280129012B012C012E012F01C4
:1003E00031013201330135013601380139013B0158
:1003F0003C013E013F0141014201440145014701E9
:1004000048014A014B014D014F0150015201530176
:100410005501570158015A015C015D015F016101FD
:10042000620164016601670169016B016D016E0182
:100430007001720174017501770179017B017D0101
:100440007E01800182018401860188018A018C017C
:100450008E019001910193019501970199019B01F2
:100460009D019F01A101A301A501A801AA01AC0161
:10047000AE01B001B201B401B601B801BB01BD01CA
:10048000BF01C101C301C601C801CA01CC01CF012E
:10049000D101D301D501D801DA01DC01DF01E1018D
:1004A000E401E601E801EB01ED01F001F201F501E3
:1004B000F701FA01FC01FF01010204020602090230
:1004C0000C020E0211021302160219021C021E0275
:1004D00021022402260229022C022F0232023402B7
:1004E00037023A023D0240024302460249024C02F0
:1004F0004E025102540257025A025E026102640225
:1005000067026A026D027002730276027A027D024D
:100510008002830287028A028D029102940297026E
:100520009B029E02A102A502A802AC02AF02B30286
:10053000B602BA02BD02C102C502C802CC02CF0295
:10054000D302D702DB02DE02E202E602EA02ED0299
:10055000F102F502F902FD020103050309030D038F
:100560001103150319031D032103250329032E037A
:10057000320336033A033E03430347034B0350035E
:10058000540358035D03610366036A036F03730337
:1005900078037D03810386038A038F039403990301
:1005A0009D03A203A703AC03B103B603BB03C003BF
:1005B000C503CA03CF03D403D903DE03E303E8036F
:1005C000ED03F303F803FD03030408040D0413040F
:1005D00018041E04230429042E04340439043F049F
:1005E00045044A04500456045C04610467046D0425
:1005F000730479047F0485048B04910497049E049A
:10060000A404AA04B004B704BD04C304CA04D004FB
:10061000D604DD04E304EA04F104F704FE0405054E
:100620000B0512051905200527052E0535053C0586
:1006300043054A05510558055F0567056E057505B3
:100640007D0584058B0593059A05A205AA05B105CC
:10065000B905C105C805D005D805E005E805F005D0
:10066000F8050006080610061806210629063106B8
:100670003A0642064B0653065C0664066D0676068D
:100680007E06870690069906A206AB06B406BD064E
:10069000C606CF06D906E206EB06F506FE060807F3
:1006A00011071B0724072E07380742074B0755077A
:1006B0005F07690773077E07880792079C07A707EC
:1006C000B107BB07C607D107DB07E607F107FB0742
:1006D000060811081C08270832083E084908540873
:1006E0005F086B08760882088D089908A508B1088C
:1006F000BC08C808D408E008ED08F9080509110984
:100700001E092A093709430950095D096909760953
:10071000830990099D09AA09B809C509D209E00908
:10072000ED09FB09080A160A240A320A400A4E0A91
:100730005C0A6A0A780A860A950AA30AB20AC10AFA
:10074000CF0ADE0AED0AFC0A0B0B1A0B290B390B38
:10075000480B570B670B770B860B960BA60BB60B4C
:10076000C60BD60BE60BF70B070C180C280C390C34
:100770004A0C5A0C6B0C7C0C8E0C9F0CB00CC10CF0
:10078000D30CE50CF60C080D1A0D2C0D3E0D500D7A
:10079000620D750D870D9A0DAD0DBF0DD20DE50DD6
:1007A000F80D0C0E1F0E320E460E590E6D0E810EF8
:1007B000950EA90EBD0ED10EE60EFA0E0F0F230FE9
:1007C000380F4D0F620F770F8D0FA20FB80FCD0F9F
:1007D000E30FF90FFF0FFF0FFF0FFF0FFF0FFF0FCB
:1007E000FF0FFF0FFF0FFF0FFF0FFF0FFF0FFF0F99
:1007F000FF0FFF0FFF0FFF0FFF0FFF0FFF0FFF0F89
:10080000FF0FFF0FFF0FFF0FFF0FFF0FFF0FFF0F78
:10081000FF0FFF0FFF0FFF0FFF0FFF0FFF0FFF0F68
:10082000FF0F8FB199B0A5AFB2AEC1ADD0ACE1AB07
:10083000F4AA07AA1CA933A84AA763A67DA598A471
:10084000B4A3D2A2F1A111A132A0559F799E9D9D82
:10085000C49CEB9B139B3D9A68999498C197EF9623
:100860001E964F958094B393E7921C925291899073
:10087000C18FFA8E348E708DAC8CEA8B288B688A8F
:10088000A989EA882D887187B586FB8542858A8487
:10089000D2831C836782B381FF804D809C7FEB7E77
:1008A0003C7E8D7DE07C337C877BDC7A337A8A7971
:1008B000E2783B789477EF764B76A775047563748E
:1008C000C27322738272E4714771AA700E70736FE3
:1008D000D96E406EA86D106D796CE36B4E6BBA6A81
:1008E000266A936901697068E0675067C16633667C
:1008F000A6651A658E6403647863EF626662DE61E2
:100900005761D0604A60C55F415FBD5E3A5EB85DC9
:10091000365DB55C355CB65B375BB95A3C5ABF593E
:100920004359C7584D58D2575957E0566856F15554
:100930007A5504558E541954A5533153BE524C5216
:10094000DA516951F85089501950AA4F3C4FCF4E97
:10095000624EF54D8A4D1E4DB44C4A4CE04B774BE0
:100960000F4BA74A404AD94973490E49A948444800
:10097000E0477D471A47B8465646F5459445344505
:10098000D44475441644B8435B43FE42A1424542F9
:10099000E9418E413341D94080402740CE3F763FE8
:1009A0001E3FC73E703E193EC43D6E3D193DC53CDD
:1009B000713C1D3CCA3B773B253BD43A823A313AE5
:1009C000E13991394139F238A33855380738BA3707
:1009D0006D372037D43688363D36F235A7355D354C
:1009E0001335CA3481343834F033A83361331A33C1
:1009F000D3328D3247320132BC3177313331EF306F
:100A0000AB3068302530E32FA02F5F2F1D2FDC2E59
:100A10009B2E5B2E1B2EDB2D9C2D5C2D1E2DDF2C8B
:100A2000A12C642C262CE92BAD2B702B342BF82A0F
:100A3000BD2A822A472A0D2AD32999295F292629E6
:100A4000ED28B5287C2844280D28D5279E27672720
:100A50003127FB26C5268F265A262526F025BC25BC
:100A6000882554252025ED24BA24872454242224C3
:100A7000F023BF238D235C232B23FA22CA229A2240
:100A80006A223B220B22DC21AD217F215021222131
:100A9000F520C7209A206D2040201320E71FBB1FA0
:100AA0008F1F631F381F0D1FE21EB71E8D1E621E93
:100AB000381E0F1EE51DBC1D931D6A1D411D191D0D
:100AC000F01CC81CA11C791C521C2B1C041CDD1B17
:100AD000B61B901B6A1B441B1E1BF91AD41AAE1AB4
:100AE0008A1A651A401A1C1AF819D419B0198D19E6
:100AF0006A19461923190119DE18BC189A187818B2
:100B0000561834181318F117D017AF178F176E1720
:100B10004E172D170D17ED16CE16AE168F16701632
:100B2000511632161316F515D615B8159A157C15EB
:100B30005E15411524150615E914CC14B014931450
:100B400077145A143E1422140614EB13CF13B41363
:100B500098137D13621348132D131213F812DE122B
:100B6000C412AA12901276125D1243122A121112A6
:100B7000F811DF11C711AE1196117D1165114D11DC
:100B800035111D110611EE10D710BF10A8109110CD
:100B90007A1064104D10361020100A10F30FDD0F7C
:100BA000C70FB20F9C0F860F710F5C0F460F310FEE
:100BB0001C0F070FF30EDE0EC90EB50EA10E8C0E24
:100BC000780E640E500E3D0E290E150E020EEE0D1F
:100BD000DB0DC80DB50DA20D8F0D7C0D6A0D570DE7
:100BE000450D320D200D0E0DFC0CEA0CD80CC60C78
:100BF000B50CA30C920C800C6F0C5E0C4D0C3C0CD5
:100C00002B0C1A0C090CF90BE80BD80BC70BB70B04
:100C1000A70B970B870B770B670B570B470B380B03
:100C2000280B190B0A0BFA0AEB0ADC0ACD0ABE0ADA
:100C3000AF0AA00A920A830A750A660A580A490A84
:100C40003B0A2D0A1F0A110A030AF509E809DA0905
:100C5000CC09BF09B109A409960989097C096F0962
:100C60006209550948093B092E0922091509090994
:100C7000FC08F008E308D708CB08BF08B308A608AB
:100C80009B088F08830877086B0860085408490898
:100C90003D08320826081B0810080508FA07EF0768
:100CA000E407D907CE07C307B807AE07A30799071C
:100CB0008E07840779076F0765075A0750074607AD
:100CC0003C07320728071E0714070B070107F70622
:100CD000EE06E406DA06D106C806BE06B506AC0680
:100CE000A2069906900687067E0675066C066306C0
:100CF0005A0652064906400638062F0626061E06E4
:100D000015060D060506FC05F405EC05E405DB05F6
:100D1000D305CB05C305BB05B305AC05A4059C05F0
:100D200094058C0585057D0576056E0567055F05CF
:100D300058055005490542053A0533052C0525059A
:100D40001E051705100509050205FB04F404ED0452
:100D5000E604DF04D904D204CB04C504BE04B704FE
:100D6000B104AA04A4049E04970491048B0484048F
:100D70007E04780472046B0465045F045904530410
:100D80004D04470441043C04360430042A0424047E
:100D90001F04190413040E0408040204FD03F703DE
:100DA000F203EC03E703E203DC03D703D203CC0333
:100DB000C703C203BD03B703B203AD03A803A30374
:100DC0009E03990394038F038A03850380037C03A6
:100DD000770372036D03690364035F035A035603C9
:100DE00051034D03480344033F033B0336033203DF
:100DF0002D032903240320031C03170313030F03EC
:100E00000B0307030203FE02FA02F602F202EE02ED
:100E1000EA02E602E202DE02DA02D602D202CE02E2
:100E2000CA02C602C202BF02BB02B702B302B002CC
:100E3000AC02A802A402A1029D029A0296029202AA
:100E40008F028B028802840281027D027A0276027E
:100E5000730270026C026902660262025F025C0247
:100E60005802550252024F024C0248024502420209
:100E70003F023C0239023602330230022D022A02BE
:100E80002702240221021E021B021802150212026E
:100E90000F020C020A02070204020102FE01FC0119
:100EA000F901F601F301F101EE01EB01E901E601BF
:100EB000E401E101DE01DC01D901D701D401D20155
:100EC000CF01CD01CA01C801C501C301C001BE01E6
:100ED000BB01B901B701B401B201B001AD01AB0171
:100EE000A901A601A401A2019F019D019B019901F5
:100EF00097019401920190018E018C018A01870172
:100F00008501830181017F017D017B0179017701E9
:100F10007501730171016F016D016B016901670159
:100F20006501630161015F015D015C015A015801C6
:100F300056015401520150014F014D014B0149012D
:100F4000470146014401420140013F013D013B018F
:100F50003A013801360134013301310130012E01EB
:100F60002C012B0129012701260124012301210144
:100F700020011E011C011B01190118011601150198
:100F80001301120110010F010D010C010B010901E8
:100F9000080106010501030102010101FF00FE0035
:100FA000FC00FB00FA00F800F700F600F400F30084
:100FB000F200F000EF00EE00ED00EB00EA00E900C7
:100FC000E800E600E500E400E300E100E000DF0007
:100FD000DE00DD00DB00DA00D900D800D700D50044
:100FE000D400D300D200D100D000CF00CE00CC007E
:100FF000CB00CA00C900C800C700C600C500C400B5
:10100000C300C200C100C000BF00BD00BC00BB00E7
:10101000BA00B900B800B700B600B500B400B3001C
:10102000B30011241FBECFE5D2E0DEBFCDBF10E07C
:10103000A0E6B0E0E4EBF1E102C005900D92A2362B
:10104000B107D9F720E0A2E6B0E001C01D92A636B4
:10105000B207E1F78CD0ACC0D3C78FB980E48EB9AA
:101060008FB7F894769B03C08FBF8FB10895689AAD
:10107000F9CF1F920F920FB60F9211242F933F9327
:101080008F939F938AB59BB520916000309161004A
:10109000820F931F9BBD8ABD9F918F913F912F918E
:1010A0000F900FBE0F901F9018951F920F920FB6C2
:1010B0000F9211242F933F934F935F936F937F93DE
:1010C0008F939F93AF93BF93CF93DF93EF93FF9350
:1010D00094B185B1892798278927909365008093DB
:1010E00064002091640030916500809162009091CD
:1010F00063002817390741F1E0916400F091650021
:10110000EE0FFF1FEE5DF74F859194919093610074
:1011100080936000E0916400F0916500EE0FFF1F86
:10112000EE5DFF4FC591D491DB988D2F8F7080635A
:1011300094DF8C2F92DFDB9A8091640090916500A0
:101140009093630080936200FF91EF91DF91CF91C4
:10115000BF91AF919F918F917F916F915F914F91CF
:101160003F912F910F900FBE0F901F901895D39A1B
:101170008DB18F718DB98DB18A618DB9D49AD59A9F
:10118000D698DB9AD69A1FBC1EBC8FB580648FBDE3
:101190008EB582608EBD619A86B1876086B987B14F
:1011A000816487B9359A379A339A7894369AFFCF03
:0411B000F894FFCFE1
:0211B4008414A1
:00000001FF
